{
  "contractName": "EXAMPLEToken",
  "abi": [
    {
      "inputs": [
        {
          "internalType": "string",
          "name": "uri_",
          "type": "string"
        }
      ],
      "stateMutability": "nonpayable",
      "type": "constructor"
    },
    {
      "anonymous": false,
      "inputs": [
        {
          "indexed": true,
          "internalType": "address",
          "name": "account",
          "type": "address"
        },
        {
          "indexed": true,
          "internalType": "address",
          "name": "operator",
          "type": "address"
        },
        {
          "indexed": false,
          "internalType": "bool",
          "name": "approved",
          "type": "bool"
        }
      ],
      "name": "ApprovalForAll",
      "type": "event"
    },
    {
      "anonymous": false,
      "inputs": [
        {
          "indexed": true,
          "internalType": "address",
          "name": "previousOwner",
          "type": "address"
        },
        {
          "indexed": true,
          "internalType": "address",
          "name": "newOwner",
          "type": "address"
        }
      ],
      "name": "OwnershipTransferred",
      "type": "event"
    },
    {
      "anonymous": false,
      "inputs": [
        {
          "indexed": true,
          "internalType": "address",
          "name": "operator",
          "type": "address"
        },
        {
          "indexed": true,
          "internalType": "address",
          "name": "from",
          "type": "address"
        },
        {
          "indexed": true,
          "internalType": "address",
          "name": "to",
          "type": "address"
        },
        {
          "indexed": false,
          "internalType": "uint256[]",
          "name": "ids",
          "type": "uint256[]"
        },
        {
          "indexed": false,
          "internalType": "uint256[]",
          "name": "values",
          "type": "uint256[]"
        }
      ],
      "name": "TransferBatch",
      "type": "event"
    },
    {
      "anonymous": false,
      "inputs": [
        {
          "indexed": true,
          "internalType": "address",
          "name": "operator",
          "type": "address"
        },
        {
          "indexed": true,
          "internalType": "address",
          "name": "from",
          "type": "address"
        },
        {
          "indexed": true,
          "internalType": "address",
          "name": "to",
          "type": "address"
        },
        {
          "indexed": false,
          "internalType": "uint256",
          "name": "id",
          "type": "uint256"
        },
        {
          "indexed": false,
          "internalType": "uint256",
          "name": "value",
          "type": "uint256"
        }
      ],
      "name": "TransferSingle",
      "type": "event"
    },
    {
      "anonymous": false,
      "inputs": [
        {
          "indexed": false,
          "internalType": "string",
          "name": "value",
          "type": "string"
        },
        {
          "indexed": true,
          "internalType": "uint256",
          "name": "id",
          "type": "uint256"
        }
      ],
      "name": "URI",
      "type": "event"
    },
    {
      "inputs": [
        {
          "internalType": "address",
          "name": "account",
          "type": "address"
        },
        {
          "internalType": "uint256",
          "name": "id",
          "type": "uint256"
        }
      ],
      "name": "balanceOf",
      "outputs": [
        {
          "internalType": "uint256",
          "name": "",
          "type": "uint256"
        }
      ],
      "stateMutability": "view",
      "type": "function"
    },
    {
      "inputs": [
        {
          "internalType": "address[]",
          "name": "accounts",
          "type": "address[]"
        },
        {
          "internalType": "uint256[]",
          "name": "ids",
          "type": "uint256[]"
        }
      ],
      "name": "balanceOfBatch",
      "outputs": [
        {
          "internalType": "uint256[]",
          "name": "",
          "type": "uint256[]"
        }
      ],
      "stateMutability": "view",
      "type": "function"
    },
    {
      "inputs": [
        {
          "internalType": "address",
          "name": "account",
          "type": "address"
        },
        {
          "internalType": "uint256",
          "name": "id",
          "type": "uint256"
        },
        {
          "internalType": "uint256",
          "name": "value",
          "type": "uint256"
        }
      ],
      "name": "burn",
      "outputs": [],
      "stateMutability": "nonpayable",
      "type": "function"
    },
    {
      "inputs": [
        {
          "internalType": "address",
          "name": "account",
          "type": "address"
        },
        {
          "internalType": "uint256[]",
          "name": "ids",
          "type": "uint256[]"
        },
        {
          "internalType": "uint256[]",
          "name": "values",
          "type": "uint256[]"
        }
      ],
      "name": "burnBatch",
      "outputs": [],
      "stateMutability": "nonpayable",
      "type": "function"
    },
    {
      "inputs": [
        {
          "internalType": "uint256",
          "name": "id",
          "type": "uint256"
        }
      ],
      "name": "exists",
      "outputs": [
        {
          "internalType": "bool",
          "name": "",
          "type": "bool"
        }
      ],
      "stateMutability": "view",
      "type": "function"
    },
    {
      "inputs": [
        {
          "internalType": "address",
          "name": "account",
          "type": "address"
        },
        {
          "internalType": "address",
          "name": "operator",
          "type": "address"
        }
      ],
      "name": "isApprovedForAll",
      "outputs": [
        {
          "internalType": "bool",
          "name": "",
          "type": "bool"
        }
      ],
      "stateMutability": "view",
      "type": "function"
    },
    {
      "inputs": [],
      "name": "owner",
      "outputs": [
        {
          "internalType": "address",
          "name": "",
          "type": "address"
        }
      ],
      "stateMutability": "view",
      "type": "function"
    },
    {
      "inputs": [],
      "name": "renounceOwnership",
      "outputs": [],
      "stateMutability": "nonpayable",
      "type": "function"
    },
    {
      "inputs": [
        {
          "internalType": "address",
          "name": "from",
          "type": "address"
        },
        {
          "internalType": "address",
          "name": "to",
          "type": "address"
        },
        {
          "internalType": "uint256[]",
          "name": "ids",
          "type": "uint256[]"
        },
        {
          "internalType": "uint256[]",
          "name": "amounts",
          "type": "uint256[]"
        },
        {
          "internalType": "bytes",
          "name": "data",
          "type": "bytes"
        }
      ],
      "name": "safeBatchTransferFrom",
      "outputs": [],
      "stateMutability": "nonpayable",
      "type": "function"
    },
    {
      "inputs": [
        {
          "internalType": "address",
          "name": "from",
          "type": "address"
        },
        {
          "internalType": "address",
          "name": "to",
          "type": "address"
        },
        {
          "internalType": "uint256",
          "name": "id",
          "type": "uint256"
        },
        {
          "internalType": "uint256",
          "name": "amount",
          "type": "uint256"
        },
        {
          "internalType": "bytes",
          "name": "data",
          "type": "bytes"
        }
      ],
      "name": "safeTransferFrom",
      "outputs": [],
      "stateMutability": "nonpayable",
      "type": "function"
    },
    {
      "inputs": [
        {
          "internalType": "address",
          "name": "operator",
          "type": "address"
        },
        {
          "internalType": "bool",
          "name": "approved",
          "type": "bool"
        }
      ],
      "name": "setApprovalForAll",
      "outputs": [],
      "stateMutability": "nonpayable",
      "type": "function"
    },
    {
      "inputs": [
        {
          "internalType": "bytes4",
          "name": "interfaceId",
          "type": "bytes4"
        }
      ],
      "name": "supportsInterface",
      "outputs": [
        {
          "internalType": "bool",
          "name": "",
          "type": "bool"
        }
      ],
      "stateMutability": "view",
      "type": "function"
    },
    {
      "inputs": [
        {
          "internalType": "uint256",
          "name": "id",
          "type": "uint256"
        }
      ],
      "name": "totalSupply",
      "outputs": [
        {
          "internalType": "uint256",
          "name": "",
          "type": "uint256"
        }
      ],
      "stateMutability": "view",
      "type": "function"
    },
    {
      "inputs": [
        {
          "internalType": "address",
          "name": "newOwner",
          "type": "address"
        }
      ],
      "name": "transferOwnership",
      "outputs": [],
      "stateMutability": "nonpayable",
      "type": "function"
    },
    {
      "inputs": [
        {
          "internalType": "uint256",
          "name": "",
          "type": "uint256"
        }
      ],
      "name": "uri",
      "outputs": [
        {
          "internalType": "string",
          "name": "",
          "type": "string"
        }
      ],
      "stateMutability": "view",
      "type": "function"
    },
    {
      "inputs": [],
      "name": "name",
      "outputs": [
        {
          "internalType": "string",
          "name": "",
          "type": "string"
        }
      ],
      "stateMutability": "view",
      "type": "function"
    },
    {
      "inputs": [],
      "name": "symbol",
      "outputs": [
        {
          "internalType": "string",
          "name": "",
          "type": "string"
        }
      ],
      "stateMutability": "view",
      "type": "function"
    },
    {
      "inputs": [
        {
          "internalType": "string",
          "name": "uri_",
          "type": "string"
        }
      ],
      "name": "setURI",
      "outputs": [],
      "stateMutability": "nonpayable",
      "type": "function"
    },
    {
      "inputs": [],
      "name": "contractURI",
      "outputs": [
        {
          "internalType": "string",
          "name": "",
          "type": "string"
        }
      ],
      "stateMutability": "view",
      "type": "function"
    },
    {
      "inputs": [
        {
          "internalType": "string",
          "name": "contractURI_",
          "type": "string"
        }
      ],
      "name": "setContractURI",
      "outputs": [],
      "stateMutability": "nonpayable",
      "type": "function"
    },
    {
      "inputs": [
        {
          "internalType": "address",
          "name": "to",
          "type": "address"
        },
        {
          "internalType": "uint256",
          "name": "id",
          "type": "uint256"
        },
        {
          "internalType": "uint256",
          "name": "amount",
          "type": "uint256"
        },
        {
          "internalType": "bytes",
          "name": "data",
          "type": "bytes"
        }
      ],
      "name": "mint",
      "outputs": [],
      "stateMutability": "nonpayable",
      "type": "function"
    }
  ],
  "bytecode": "0x60806040523480156200001157600080fd5b50604051620023af380380620023af83398101604081905262000034916200026c565b806200004033620000d8565b6200004b8162000128565b506040805180820190915260108082526f4558414d504c45204e4654203131353560801b60209092019182526200008591600591620001b0565b5060408051808201909152600b8082526a4558414d504c453131353560a81b6020909201918252620000ba91600691620001b0565b50620000c68162000128565b620000d18162000141565b5062000385565b600080546001600160a01b038381166001600160a01b0319831681178455604051919092169283917f8be0079c531659141344cd1fd0a4f28419497f9722a3daafe3b4186f6b6457e09190a35050565b80516200013d906003906020840190620001b0565b5050565b6000546001600160a01b03163314620001a05760405162461bcd60e51b815260206004820181905260248201527f4f776e61626c653a2063616c6c6572206973206e6f7420746865206f776e6572604482015260640160405180910390fd5b80516200013d9060079060208401905b828054620001be9062000348565b90600052602060002090601f016020900481019282620001e257600085556200022d565b82601f10620001fd57805160ff19168380011785556200022d565b828001600101855582156200022d579182015b828111156200022d57825182559160200191906001019062000210565b506200023b9291506200023f565b5090565b5b808211156200023b576000815560010162000240565b634e487b7160e01b600052604160045260246000fd5b600060208083850312156200028057600080fd5b82516001600160401b03808211156200029857600080fd5b818501915085601f830112620002ad57600080fd5b815181811115620002c257620002c262000256565b604051601f8201601f19908116603f01168101908382118183101715620002ed57620002ed62000256565b8160405282815288868487010111156200030657600080fd5b600093505b828410156200032a57848401860151818501870152928501926200030b565b828411156200033c5760008684830101525b98975050505050505050565b600181811c908216806200035d57607f821691505b602082108114156200037f57634e487b7160e01b600052602260045260246000fd5b50919050565b61201a80620003956000396000f3fe608060405234801561001057600080fd5b50600436106101065760003560e01c8062fdd58e1461010b57806301ffc9a71461013157806302fe53051461015457806306fdde03146101695780630e89341c1461017e5780632eb2c2d6146101915780634e1273f4146101a45780634f558e79146101c45780636b20c454146101e6578063715018a6146101f9578063731133e9146102015780638da5cb5b14610214578063938e3d7b1461023457806395d89b4114610247578063a22cb4651461024f578063bd85b03914610262578063e8a3d48514610282578063e985e9c51461028a578063f242432a146102c6578063f2fde38b146102d9578063f5298aca146102ec575b600080fd5b61011e610119366004611527565b6102ff565b6040519081526020015b60405180910390f35b61014461013f366004611567565b610398565b6040519015158152602001610128565b61016761016236600461162a565b6103ea565b005b610171610425565b60405161012891906116c7565b61017161018c3660046116da565b6104b7565b61016761019f3660046117a7565b61054b565b6101b76101b2366004611850565b6105e2565b6040516101289190611955565b6101446101d23660046116da565b600090815260046020526040902054151590565b6101676101f4366004611968565b61070b565b610167610753565b61016761020f3660046119db565b61078e565b61021c6107cf565b6040516001600160a01b039091168152602001610128565b61016761024236600461162a565b6107de565b610171610824565b61016761025d366004611a3b565b610833565b61011e6102703660046116da565b60009081526004602052604090205490565b61017161083e565b610144610298366004611a77565b6001600160a01b03918216600090815260026020908152604080832093909416825291909152205460ff1690565b6101676102d4366004611aaa565b61084d565b6101676102e7366004611b0e565b610892565b6101676102fa366004611b29565b61092f565b60006001600160a01b0383166103705760405162461bcd60e51b815260206004820152602b60248201527f455243313135353a2062616c616e636520717565727920666f7220746865207a60448201526a65726f206164647265737360a81b60648201526084015b60405180910390fd5b5060009081526001602090815260408083206001600160a01b03949094168352929052205490565b60006001600160e01b03198216636cdb3d1360e11b14806103c957506001600160e01b031982166303a24d0760e21b145b806103e457506301ffc9a760e01b6001600160e01b03198316145b92915050565b336103f36107cf565b6001600160a01b0316146104195760405162461bcd60e51b815260040161036790611b5c565b61042281610972565b50565b60606005805461043490611b91565b80601f016020809104026020016040519081016040528092919081815260200182805461046090611b91565b80156104ad5780601f10610482576101008083540402835291602001916104ad565b820191906000526020600020905b81548152906001019060200180831161049057829003601f168201915b5050505050905090565b6060600380546104c690611b91565b80601f01602080910402602001604051908101604052809291908181526020018280546104f290611b91565b801561053f5780601f106105145761010080835404028352916020019161053f565b820191906000526020600020905b81548152906001019060200180831161052257829003601f168201915b50505050509050919050565b6001600160a01b03851633148061056757506105678533610298565b6105ce5760405162461bcd60e51b815260206004820152603260248201527f455243313135353a207472616e736665722063616c6c6572206973206e6f74206044820152711bdddb995c881b9bdc88185c1c1c9bdd995960721b6064820152608401610367565b6105db8585858585610985565b5050505050565b606081518351146106475760405162461bcd60e51b815260206004820152602960248201527f455243313135353a206163636f756e747320616e6420696473206c656e677468604482015268040dad2e6dac2e8c6d60bb1b6064820152608401610367565b600083516001600160401b038111156106625761066261158b565b60405190808252806020026020018201604052801561068b578160200160208202803683370190505b50905060005b8451811015610703576106d68582815181106106af576106af611bcc565b60200260200101518583815181106106c9576106c9611bcc565b60200260200101516102ff565b8282815181106106e8576106e8611bcc565b60209081029190910101526106fc81611bf8565b9050610691565b509392505050565b6001600160a01b03831633148061072757506107278333610298565b6107435760405162461bcd60e51b815260040161036790611c13565b61074e838383610b32565b505050565b3361075c6107cf565b6001600160a01b0316146107825760405162461bcd60e51b815260040161036790611b5c565b61078c6000610cc3565b565b336107976107cf565b6001600160a01b0316146107bd5760405162461bcd60e51b815260040161036790611b5c565b6107c984848484610d13565b50505050565b6000546001600160a01b031690565b336107e76107cf565b6001600160a01b03161461080d5760405162461bcd60e51b815260040161036790611b5c565b8051610820906007906020840190611472565b5050565b60606006805461043490611b91565b610820338383610e13565b60606007805461043490611b91565b6001600160a01b03851633148061086957506108698533610298565b6108855760405162461bcd60e51b815260040161036790611c13565b6105db8585858585610ef4565b3361089b6107cf565b6001600160a01b0316146108c15760405162461bcd60e51b815260040161036790611b5c565b6001600160a01b0381166109265760405162461bcd60e51b815260206004820152602660248201527f4f776e61626c653a206e6577206f776e657220697320746865207a65726f206160448201526564647265737360d01b6064820152608401610367565b61042281610cc3565b6001600160a01b03831633148061094b575061094b8333610298565b6109675760405162461bcd60e51b815260040161036790611c13565b61074e838383611003565b8051610820906003906020840190611472565b81518351146109a65760405162461bcd60e51b815260040161036790611c5c565b6001600160a01b0384166109cc5760405162461bcd60e51b815260040161036790611ca4565b336109db8187878787876110f6565b60005b8451811015610ac45760008582815181106109fb576109fb611bcc565b602002602001015190506000858381518110610a1957610a19611bcc565b60209081029190910181015160008481526001835260408082206001600160a01b038e168352909352919091205490915081811015610a6a5760405162461bcd60e51b815260040161036790611ce9565b60008381526001602090815260408083206001600160a01b038e8116855292528083208585039055908b16825281208054849290610aa9908490611d33565b9250508190555050505080610abd90611bf8565b90506109de565b50846001600160a01b0316866001600160a01b0316826001600160a01b03167f4a39dc06d4c0dbc64b70af90fd698a233a518aa5d07e595d983b8c0526c8f7fb8787604051610b14929190611d4b565b60405180910390a4610b2a818787878787611104565b505050505050565b6001600160a01b038316610b585760405162461bcd60e51b815260040161036790611d79565b8051825114610b795760405162461bcd60e51b815260040161036790611c5c565b6000339050610b9c818560008686604051806020016040528060008152506110f6565b60005b8351811015610c64576000848281518110610bbc57610bbc611bcc565b602002602001015190506000848381518110610bda57610bda611bcc565b60209081029190910181015160008481526001835260408082206001600160a01b038c168352909352919091205490915081811015610c2b5760405162461bcd60e51b815260040161036790611dbc565b60009283526001602090815260408085206001600160a01b038b1686529091529092209103905580610c5c81611bf8565b915050610b9f565b5060006001600160a01b0316846001600160a01b0316826001600160a01b03167f4a39dc06d4c0dbc64b70af90fd698a233a518aa5d07e595d983b8c0526c8f7fb8686604051610cb5929190611d4b565b60405180910390a450505050565b600080546001600160a01b038381166001600160a01b0319831681178455604051919092169283917f8be0079c531659141344cd1fd0a4f28419497f9722a3daafe3b4186f6b6457e09190a35050565b6001600160a01b038416610d735760405162461bcd60e51b815260206004820152602160248201527f455243313135353a206d696e7420746f20746865207a65726f206164647265736044820152607360f81b6064820152608401610367565b33610d9381600087610d8488611260565b610d8d88611260565b876110f6565b60008481526001602090815260408083206001600160a01b038916845290915281208054859290610dc5908490611d33565b909155505060408051858152602081018590526001600160a01b038088169260009291851691600080516020611fc5833981519152910160405180910390a46105db816000878787876112ab565b816001600160a01b0316836001600160a01b03161415610e875760405162461bcd60e51b815260206004820152602960248201527f455243313135353a2073657474696e6720617070726f76616c20737461747573604482015268103337b91039b2b63360b91b6064820152608401610367565b6001600160a01b03838116600081815260026020908152604080832094871680845294825291829020805460ff191686151590811790915591519182527f17307eab39ab6107e8899845ad3d59bd9653f200f220920489ca2b5937696c31910160405180910390a3505050565b6001600160a01b038416610f1a5760405162461bcd60e51b815260040161036790611ca4565b33610f2a818787610d8488611260565b60008481526001602090815260408083206001600160a01b038a16845290915290205483811015610f6d5760405162461bcd60e51b815260040161036790611ce9565b60008581526001602090815260408083206001600160a01b038b8116855292528083208785039055908816825281208054869290610fac908490611d33565b909155505060408051868152602081018690526001600160a01b03808916928a82169291861691600080516020611fc5833981519152910160405180910390a4610ffa8288888888886112ab565b50505050505050565b6001600160a01b0383166110295760405162461bcd60e51b815260040161036790611d79565b336110588185600061103a87611260565b61104387611260565b604051806020016040528060008152506110f6565b60008381526001602090815260408083206001600160a01b03881684529091529020548281101561109b5760405162461bcd60e51b815260040161036790611dbc565b60008481526001602090815260408083206001600160a01b0389811680865291845282852088870390558251898152938401889052909290861691600080516020611fc5833981519152910160405180910390a45050505050565b610b2a868686868686611366565b6001600160a01b0384163b15610b2a5760405163bc197c8160e01b81526001600160a01b0385169063bc197c81906111489089908990889088908890600401611e00565b6020604051808303816000875af1925050508015611183575060408051601f3d908101601f1916820190925261118091810190611e5e565b60015b6112305761118f611e7b565b806308c379a014156111c957506111a4611e97565b806111af57506111cb565b8060405162461bcd60e51b815260040161036791906116c7565b505b60405162461bcd60e51b815260206004820152603460248201527f455243313135353a207472616e7366657220746f206e6f6e20455243313135356044820152732932b1b2b4bb32b91034b6b83632b6b2b73a32b960611b6064820152608401610367565b6001600160e01b0319811663bc197c8160e01b14610ffa5760405162461bcd60e51b815260040161036790611f20565b6040805160018082528183019092526060916000919060208083019080368337019050509050828160008151811061129a5761129a611bcc565b602090810291909101015292915050565b6001600160a01b0384163b15610b2a5760405163f23a6e6160e01b81526001600160a01b0385169063f23a6e61906112ef9089908990889088908890600401611f68565b6020604051808303816000875af192505050801561132a575060408051601f3d908101601f1916820190925261132791810190611e5e565b60015b6113365761118f611e7b565b6001600160e01b0319811663f23a6e6160e01b14610ffa5760405162461bcd60e51b815260040161036790611f20565b6001600160a01b0385166113ed5760005b83518110156113eb5782818151811061139257611392611bcc565b6020026020010151600460008684815181106113b0576113b0611bcc565b6020026020010151815260200190815260200160002060008282546113d59190611d33565b909155506113e4905081611bf8565b9050611377565b505b6001600160a01b038416610b2a5760005b8351811015610ffa5782818151811061141957611419611bcc565b60200260200101516004600086848151811061143757611437611bcc565b60200260200101518152602001908152602001600020600082825461145c9190611fad565b9091555061146b905081611bf8565b90506113fe565b82805461147e90611b91565b90600052602060002090601f0160209004810192826114a057600085556114e6565b82601f106114b957805160ff19168380011785556114e6565b828001600101855582156114e6579182015b828111156114e65782518255916020019190600101906114cb565b506114f29291506114f6565b5090565b5b808211156114f257600081556001016114f7565b80356001600160a01b038116811461152257600080fd5b919050565b6000806040838503121561153a57600080fd5b6115438361150b565b946020939093013593505050565b6001600160e01b03198116811461042257600080fd5b60006020828403121561157957600080fd5b813561158481611551565b9392505050565b634e487b7160e01b600052604160045260246000fd5b601f8201601f191681016001600160401b03811182821017156115c6576115c661158b565b6040525050565b60006001600160401b038311156115e6576115e661158b565b6040516115fd601f8501601f1916602001826115a1565b80915083815284848401111561161257600080fd5b83836020830137600060208583010152509392505050565b60006020828403121561163c57600080fd5b81356001600160401b0381111561165257600080fd5b8201601f8101841361166357600080fd5b611672848235602084016115cd565b949350505050565b6000815180845260005b818110156116a057602081850181015186830182015201611684565b818111156116b2576000602083870101525b50601f01601f19169290920160200192915050565b602081526000611584602083018461167a565b6000602082840312156116ec57600080fd5b5035919050565b60006001600160401b0382111561170c5761170c61158b565b5060051b60200190565b600082601f83011261172757600080fd5b81356020611734826116f3565b60405161174182826115a1565b83815260059390931b850182019282810191508684111561176157600080fd5b8286015b8481101561177c5780358352918301918301611765565b509695505050505050565b600082601f83011261179857600080fd5b611584838335602085016115cd565b600080600080600060a086880312156117bf57600080fd5b6117c88661150b565b94506117d66020870161150b565b935060408601356001600160401b03808211156117f257600080fd5b6117fe89838a01611716565b9450606088013591508082111561181457600080fd5b61182089838a01611716565b9350608088013591508082111561183657600080fd5b5061184388828901611787565b9150509295509295909350565b6000806040838503121561186357600080fd5b82356001600160401b038082111561187a57600080fd5b818501915085601f83011261188e57600080fd5b8135602061189b826116f3565b6040516118a882826115a1565b83815260059390931b85018201928281019150898411156118c857600080fd5b948201945b838610156118ed576118de8661150b565b825294820194908201906118cd565b9650508601359250508082111561190357600080fd5b5061191085828601611716565b9150509250929050565b600081518084526020808501945080840160005b8381101561194a5781518752958201959082019060010161192e565b509495945050505050565b602081526000611584602083018461191a565b60008060006060848603121561197d57600080fd5b6119868461150b565b925060208401356001600160401b03808211156119a257600080fd5b6119ae87838801611716565b935060408601359150808211156119c457600080fd5b506119d186828701611716565b9150509250925092565b600080600080608085870312156119f157600080fd5b6119fa8561150b565b9350602085013592506040850135915060608501356001600160401b03811115611a2357600080fd5b611a2f87828801611787565b91505092959194509250565b60008060408385031215611a4e57600080fd5b611a578361150b565b915060208301358015158114611a6c57600080fd5b809150509250929050565b60008060408385031215611a8a57600080fd5b611a938361150b565b9150611aa16020840161150b565b90509250929050565b600080600080600060a08688031215611ac257600080fd5b611acb8661150b565b9450611ad96020870161150b565b9350604086013592506060860135915060808601356001600160401b03811115611b0257600080fd5b61184388828901611787565b600060208284031215611b2057600080fd5b6115848261150b565b600080600060608486031215611b3e57600080fd5b611b478461150b565b95602085013595506040909401359392505050565b6020808252818101527f4f776e61626c653a2063616c6c6572206973206e6f7420746865206f776e6572604082015260600190565b600181811c90821680611ba557607f821691505b60208210811415611bc657634e487b7160e01b600052602260045260246000fd5b50919050565b634e487b7160e01b600052603260045260246000fd5b634e487b7160e01b600052601160045260246000fd5b6000600019821415611c0c57611c0c611be2565b5060010190565b60208082526029908201527f455243313135353a2063616c6c6572206973206e6f74206f776e6572206e6f7260408201526808185c1c1c9bdd995960ba1b606082015260800190565b60208082526028908201527f455243313135353a2069647320616e6420616d6f756e7473206c656e677468206040820152670dad2e6dac2e8c6d60c31b606082015260800190565b60208082526025908201527f455243313135353a207472616e7366657220746f20746865207a65726f206164604082015264647265737360d81b606082015260800190565b6020808252602a908201527f455243313135353a20696e73756666696369656e742062616c616e636520666f60408201526939103a3930b739b332b960b11b606082015260800190565b60008219821115611d4657611d46611be2565b500190565b604081526000611d5e604083018561191a565b8281036020840152611d70818561191a565b95945050505050565b60208082526023908201527f455243313135353a206275726e2066726f6d20746865207a65726f206164647260408201526265737360e81b606082015260800190565b60208082526024908201527f455243313135353a206275726e20616d6f756e7420657863656564732062616c604082015263616e636560e01b606082015260800190565b6001600160a01b0386811682528516602082015260a060408201819052600090611e2c9083018661191a565b8281036060840152611e3e818661191a565b90508281036080840152611e52818561167a565b98975050505050505050565b600060208284031215611e7057600080fd5b815161158481611551565b600060033d1115611e945760046000803e5060005160e01c5b90565b600060443d1015611ea55790565b6040516003193d81016004833e81513d6001600160401b038160248401118184111715611ed457505050505090565b8285019150815181811115611eec5750505050505090565b843d8701016020828501011115611f065750505050505090565b611f15602082860101876115a1565b509095945050505050565b60208082526028908201527f455243313135353a204552433131353552656365697665722072656a656374656040820152676420746f6b656e7360c01b606082015260800190565b6001600160a01b03868116825285166020820152604081018490526060810183905260a060808201819052600090611fa29083018461167a565b979650505050505050565b600082821015611fbf57611fbf611be2565b50039056fec3d58168c5ae7397731d063d5bbf3d657854427343f4c083240f7aacaa2d0f62a2646970667358221220612bd0f7feddc5eb20ee49df1a4592244dc2e2f762ded1e3158c16935b79133864736f6c634300080b0033",
  "immutableReferences": {},
  "source": "// SPDX-License-Identifier: MIT\npragma solidity >=0.4.22 <0.9.0;\n\nimport \"@openzeppelin/contracts/access/Ownable.sol\";\nimport \"@openzeppelin/contracts/utils/Context.sol\";\nimport \"@openzeppelin/contracts/token/ERC1155/ERC1155.sol\";\nimport \"@openzeppelin/contracts/token/ERC1155/extensions/ERC1155Burnable.sol\";\nimport \"@openzeppelin/contracts/utils/math/SafeMath.sol\";\nimport \"@openzeppelin/contracts/token/ERC1155/extensions/ERC1155Supply.sol\";\n\ncontract EXAMPLEToken is Context, Ownable, ERC1155Burnable, ERC1155Supply {\n    using SafeMath for uint256;\n\n    string private _name;\n    string private _symbol;\n    string private _contractURI;\n\n    constructor(string memory uri_) public ERC1155(uri_) {\n        _name = \"EXAMPLE NFT 1155\";\n        _symbol = \"EXAMPLE1155\";\n        _setURI(uri_);\n        setContractURI(uri_);\n    }\n\n    /**\n     * @dev Returns the name of the token.\n     */\n    function name() public view virtual returns (string memory) {\n        return _name;\n    }\n\n    /**\n     * @dev Returns the symbol of the token, usually a shorter version of the\n     * name.\n     */\n    function symbol() public view virtual returns (string memory) {\n        return _symbol;\n    }\n\n    function setURI(string memory uri_) public virtual onlyOwner {\n        _setURI(uri_);\n    }\n\n    function contractURI() public view virtual returns (string memory) {\n        return _contractURI;\n    }\n\n    function setContractURI(string memory contractURI_)\n        public\n        virtual\n        onlyOwner\n    {\n        _contractURI = contractURI_;\n    }\n\n    /**\n     * @dev Creates `amount` new tokens for `to`, of token type `id`.\n     *\n     * See {ERC1155-_mint}.\n     *\n     * Requirements:\n     *\n     * - the caller must have the `MINTER_ROLE`.\n     */\n    function mint(\n        address to,\n        uint256 id,\n        uint256 amount,\n        bytes memory data\n    ) public virtual onlyOwner {\n        _mint(to, id, amount, data);\n    }\n\n    function _beforeTokenTransfer(\n        address operator,\n        address from,\n        address to,\n        uint256[] memory ids,\n        uint256[] memory amounts,\n        bytes memory data\n    ) internal override(ERC1155, ERC1155Supply) {\n        super._beforeTokenTransfer(operator, from, to, ids, amounts, data);\n    }\n}\n",
  "sourcePath": "/Users/yasuoyuhao/Project/KTProject/ERC1155/contracts/ERC1155.sol",
  "compiler": {
    "name": "solc",
    "version": "0.8.11+commit.d7f03943.Emscripten.clang"
  },
  "schemaVersion": "3.4.4",
  "updatedAt": "2022-02-17T10:59:17.709Z",
  "devdoc": {
    "kind": "dev",
    "methods": {
      "balanceOf(address,uint256)": {
        "details": "See {IERC1155-balanceOf}. Requirements: - `account` cannot be the zero address."
      },
      "balanceOfBatch(address[],uint256[])": {
        "details": "See {IERC1155-balanceOfBatch}. Requirements: - `accounts` and `ids` must have the same length."
      },
      "exists(uint256)": {
        "details": "Indicates whether any token exist with a given id, or not."
      },
      "isApprovedForAll(address,address)": {
        "details": "See {IERC1155-isApprovedForAll}."
      },
      "mint(address,uint256,uint256,bytes)": {
        "details": "Creates `amount` new tokens for `to`, of token type `id`. See {ERC1155-_mint}. Requirements: - the caller must have the `MINTER_ROLE`."
      },
      "name()": {
        "details": "Returns the name of the token."
      },
      "owner()": {
        "details": "Returns the address of the current owner."
      },
      "renounceOwnership()": {
        "details": "Leaves the contract without owner. It will not be possible to call `onlyOwner` functions anymore. Can only be called by the current owner. NOTE: Renouncing ownership will leave the contract without an owner, thereby removing any functionality that is only available to the owner."
      },
      "safeBatchTransferFrom(address,address,uint256[],uint256[],bytes)": {
        "details": "See {IERC1155-safeBatchTransferFrom}."
      },
      "safeTransferFrom(address,address,uint256,uint256,bytes)": {
        "details": "See {IERC1155-safeTransferFrom}."
      },
      "setApprovalForAll(address,bool)": {
        "details": "See {IERC1155-setApprovalForAll}."
      },
      "supportsInterface(bytes4)": {
        "details": "See {IERC165-supportsInterface}."
      },
      "symbol()": {
        "details": "Returns the symbol of the token, usually a shorter version of the name."
      },
      "totalSupply(uint256)": {
        "details": "Total amount of tokens in with a given id."
      },
      "transferOwnership(address)": {
        "details": "Transfers ownership of the contract to a new account (`newOwner`). Can only be called by the current owner."
      },
      "uri(uint256)": {
        "details": "See {IERC1155MetadataURI-uri}. This implementation returns the same URI for *all* token types. It relies on the token type ID substitution mechanism https://eips.ethereum.org/EIPS/eip-1155#metadata[defined in the EIP]. Clients calling this function must replace the `\\{id\\}` substring with the actual token type ID."
      }
    },
    "version": 1
  },
  "userdoc": {
    "kind": "user",
    "methods": {},
    "version": 1
  }
}