{
  "contractName": "GameItems",
  "abi": [
    {
      "inputs": [],
      "stateMutability": "nonpayable",
      "type": "constructor"
    },
    {
      "anonymous": false,
      "inputs": [
        {
          "indexed": true,
          "internalType": "address",
          "name": "account",
          "type": "address"
        },
        {
          "indexed": true,
          "internalType": "address",
          "name": "operator",
          "type": "address"
        },
        {
          "indexed": false,
          "internalType": "bool",
          "name": "approved",
          "type": "bool"
        }
      ],
      "name": "ApprovalForAll",
      "type": "event"
    },
    {
      "anonymous": false,
      "inputs": [
        {
          "indexed": true,
          "internalType": "address",
          "name": "operator",
          "type": "address"
        },
        {
          "indexed": true,
          "internalType": "address",
          "name": "from",
          "type": "address"
        },
        {
          "indexed": true,
          "internalType": "address",
          "name": "to",
          "type": "address"
        },
        {
          "indexed": false,
          "internalType": "uint256[]",
          "name": "ids",
          "type": "uint256[]"
        },
        {
          "indexed": false,
          "internalType": "uint256[]",
          "name": "values",
          "type": "uint256[]"
        }
      ],
      "name": "TransferBatch",
      "type": "event"
    },
    {
      "anonymous": false,
      "inputs": [
        {
          "indexed": true,
          "internalType": "address",
          "name": "operator",
          "type": "address"
        },
        {
          "indexed": true,
          "internalType": "address",
          "name": "from",
          "type": "address"
        },
        {
          "indexed": true,
          "internalType": "address",
          "name": "to",
          "type": "address"
        },
        {
          "indexed": false,
          "internalType": "uint256",
          "name": "id",
          "type": "uint256"
        },
        {
          "indexed": false,
          "internalType": "uint256",
          "name": "value",
          "type": "uint256"
        }
      ],
      "name": "TransferSingle",
      "type": "event"
    },
    {
      "anonymous": false,
      "inputs": [
        {
          "indexed": false,
          "internalType": "string",
          "name": "value",
          "type": "string"
        },
        {
          "indexed": true,
          "internalType": "uint256",
          "name": "id",
          "type": "uint256"
        }
      ],
      "name": "URI",
      "type": "event"
    },
    {
      "inputs": [],
      "name": "GOLD",
      "outputs": [
        {
          "internalType": "uint256",
          "name": "",
          "type": "uint256"
        }
      ],
      "stateMutability": "view",
      "type": "function"
    },
    {
      "inputs": [],
      "name": "SHIELD",
      "outputs": [
        {
          "internalType": "uint256",
          "name": "",
          "type": "uint256"
        }
      ],
      "stateMutability": "view",
      "type": "function"
    },
    {
      "inputs": [],
      "name": "SILVER",
      "outputs": [
        {
          "internalType": "uint256",
          "name": "",
          "type": "uint256"
        }
      ],
      "stateMutability": "view",
      "type": "function"
    },
    {
      "inputs": [],
      "name": "SWORD",
      "outputs": [
        {
          "internalType": "uint256",
          "name": "",
          "type": "uint256"
        }
      ],
      "stateMutability": "view",
      "type": "function"
    },
    {
      "inputs": [],
      "name": "THORS_HAMMER",
      "outputs": [
        {
          "internalType": "uint256",
          "name": "",
          "type": "uint256"
        }
      ],
      "stateMutability": "view",
      "type": "function"
    },
    {
      "inputs": [
        {
          "internalType": "address",
          "name": "account",
          "type": "address"
        },
        {
          "internalType": "uint256",
          "name": "id",
          "type": "uint256"
        }
      ],
      "name": "balanceOf",
      "outputs": [
        {
          "internalType": "uint256",
          "name": "",
          "type": "uint256"
        }
      ],
      "stateMutability": "view",
      "type": "function"
    },
    {
      "inputs": [
        {
          "internalType": "address[]",
          "name": "accounts",
          "type": "address[]"
        },
        {
          "internalType": "uint256[]",
          "name": "ids",
          "type": "uint256[]"
        }
      ],
      "name": "balanceOfBatch",
      "outputs": [
        {
          "internalType": "uint256[]",
          "name": "",
          "type": "uint256[]"
        }
      ],
      "stateMutability": "view",
      "type": "function"
    },
    {
      "inputs": [
        {
          "internalType": "address",
          "name": "account",
          "type": "address"
        },
        {
          "internalType": "address",
          "name": "operator",
          "type": "address"
        }
      ],
      "name": "isApprovedForAll",
      "outputs": [
        {
          "internalType": "bool",
          "name": "",
          "type": "bool"
        }
      ],
      "stateMutability": "view",
      "type": "function"
    },
    {
      "inputs": [
        {
          "internalType": "address",
          "name": "from",
          "type": "address"
        },
        {
          "internalType": "address",
          "name": "to",
          "type": "address"
        },
        {
          "internalType": "uint256[]",
          "name": "ids",
          "type": "uint256[]"
        },
        {
          "internalType": "uint256[]",
          "name": "amounts",
          "type": "uint256[]"
        },
        {
          "internalType": "bytes",
          "name": "data",
          "type": "bytes"
        }
      ],
      "name": "safeBatchTransferFrom",
      "outputs": [],
      "stateMutability": "nonpayable",
      "type": "function"
    },
    {
      "inputs": [
        {
          "internalType": "address",
          "name": "from",
          "type": "address"
        },
        {
          "internalType": "address",
          "name": "to",
          "type": "address"
        },
        {
          "internalType": "uint256",
          "name": "id",
          "type": "uint256"
        },
        {
          "internalType": "uint256",
          "name": "amount",
          "type": "uint256"
        },
        {
          "internalType": "bytes",
          "name": "data",
          "type": "bytes"
        }
      ],
      "name": "safeTransferFrom",
      "outputs": [],
      "stateMutability": "nonpayable",
      "type": "function"
    },
    {
      "inputs": [
        {
          "internalType": "address",
          "name": "operator",
          "type": "address"
        },
        {
          "internalType": "bool",
          "name": "approved",
          "type": "bool"
        }
      ],
      "name": "setApprovalForAll",
      "outputs": [],
      "stateMutability": "nonpayable",
      "type": "function"
    },
    {
      "inputs": [
        {
          "internalType": "bytes4",
          "name": "interfaceId",
          "type": "bytes4"
        }
      ],
      "name": "supportsInterface",
      "outputs": [
        {
          "internalType": "bool",
          "name": "",
          "type": "bool"
        }
      ],
      "stateMutability": "view",
      "type": "function"
    },
    {
      "inputs": [
        {
          "internalType": "uint256",
          "name": "",
          "type": "uint256"
        }
      ],
      "name": "uri",
      "outputs": [
        {
          "internalType": "string",
          "name": "",
          "type": "string"
        }
      ],
      "stateMutability": "view",
      "type": "function"
    }
  ],
  "bytecode": "0x60806040523480156200001157600080fd5b5060405180606001604052806027815260200162001b7d6027913962000037816200010f565b5062000064336000670de0b6b3a7640000604051806020016040528060008152506200012860201b60201c565b620000943360016b033b2e3c9fd0803ce8000000604051806020016040528060008152506200012860201b60201c565b620000b93360026001604051806020016040528060008152506200012860201b60201c565b620000e1336003633b9aca00604051806020016040528060008152506200012860201b60201c565b62000109336004633b9aca00604051806020016040528060008152506200012860201b60201c565b62000760565b8051620001249060029060208401906200047a565b5050565b6001600160a01b0384166200018e5760405162461bcd60e51b815260206004820152602160248201527f455243313135353a206d696e7420746f20746865207a65726f206164647265736044820152607360f81b60648201526084015b60405180910390fd5b33620001b481600087620001a28862000248565b620001ad8862000248565b5050505050565b6000848152602081815260408083206001600160a01b038916845290915281208054859290620001e690849062000520565b909155505060408051858152602081018590526001600160a01b0380881692600092918516917fc3d58168c5ae7397731d063d5bbf3d657854427343f4c083240f7aacaa2d0f62910160405180910390a4620001ad816000878787876200029e565b6040805160018082528183019092526060916000919060208083019080368337019050509050828160008151811062000285576200028562000547565b602090810291909101015292915050565b505050505050565b620002bd846001600160a01b03166200047460201b620005ae1760201c565b15620002965760405163f23a6e6160e01b81526001600160a01b0385169063f23a6e6190620002f99089908990889088908890600401620005ad565b6020604051808303816000875af192505050801562000337575060408051601f3d908101601f191682019092526200033491810190620005f4565b60015b620003f8576200034662000627565b806308c379a014156200038757506200035e6200067f565b806200036b575062000389565b8060405162461bcd60e51b81526004016200018591906200070e565b505b60405162461bcd60e51b815260206004820152603460248201527f455243313135353a207472616e7366657220746f206e6f6e204552433131353560448201527f526563656976657220696d706c656d656e746572000000000000000000000000606482015260840162000185565b6001600160e01b0319811663f23a6e6160e01b146200046b5760405162461bcd60e51b815260206004820152602860248201527f455243313135353a204552433131353552656365697665722072656a656374656044820152676420746f6b656e7360c01b606482015260840162000185565b50505050505050565b3b151590565b828054620004889062000723565b90600052602060002090601f016020900481019282620004ac5760008555620004f7565b82601f10620004c757805160ff1916838001178555620004f7565b82800160010185558215620004f7579182015b82811115620004f7578251825591602001919060010190620004da565b506200050592915062000509565b5090565b5b808211156200050557600081556001016200050a565b600082198211156200054257634e487b7160e01b600052601160045260246000fd5b500190565b634e487b7160e01b600052603260045260246000fd5b6000815180845260005b81811015620005855760208185018101518683018201520162000567565b8181111562000598576000602083870101525b50601f01601f19169290920160200192915050565b6001600160a01b03868116825285166020820152604081018490526060810183905260a060808201819052600090620005e9908301846200055d565b979650505050505050565b6000602082840312156200060757600080fd5b81516001600160e01b0319811681146200062057600080fd5b9392505050565b600060033d1115620006415760046000803e5060005160e01c5b90565b601f8201601f191681016001600160401b03811182821017156200067857634e487b7160e01b600052604160045260246000fd5b6040525050565b600060443d10156200068e5790565b6040516003193d81016004833e81513d6001600160401b038083116024840183101715620006be57505050505090565b8285019150815181811115620006d75750505050505090565b843d8701016020828501011115620006f25750505050505090565b620007036020828601018762000644565b509095945050505050565b6020815260006200062060208301846200055d565b600181811c908216806200073857607f821691505b602082108114156200075a57634e487b7160e01b600052602260045260246000fd5b50919050565b61140d80620007706000396000f3fe608060405234801561001057600080fd5b50600436106100ae5760003560e01c8062fdd58e146100b357806301ffc9a7146100d95780630e89341c146100fc57806313dc989f1461011c5780632eb2c2d6146101245780633e4bee38146101395780634e1273f4146101415780635b2725ed14610161578063a22cb46514610169578063d562e2041461017c578063e3e55f0814610184578063e985e9c51461018c578063f242432a146101c8575b600080fd5b6100c66100c1366004610c16565b6101db565b6040519081526020015b60405180910390f35b6100ec6100e7366004610c59565b610272565b60405190151581526020016100d0565b61010f61010a366004610c7d565b6102c4565b6040516100d09190610ce3565b6100c6600381565b610137610132366004610e3f565b610358565b005b6100c6600081565b61015461014f366004610ee8565b6103ef565b6040516100d09190610fed565b6100c6600481565b610137610177366004611000565b610518565b6100c6600281565b6100c6600181565b6100ec61019a36600461103c565b6001600160a01b03918216600090815260016020908152604080832093909416825291909152205460ff1690565b6101376101d636600461106f565b610527565b60006001600160a01b03831661024c5760405162461bcd60e51b815260206004820152602b60248201527f455243313135353a2062616c616e636520717565727920666f7220746865207a60448201526a65726f206164647265737360a81b60648201526084015b60405180910390fd5b506000908152602081815260408083206001600160a01b03949094168352929052205490565b60006001600160e01b03198216636cdb3d1360e11b14806102a357506001600160e01b031982166303a24d0760e21b145b806102be57506301ffc9a760e01b6001600160e01b03198316145b92915050565b6060600280546102d3906110d3565b80601f01602080910402602001604051908101604052809291908181526020018280546102ff906110d3565b801561034c5780601f106103215761010080835404028352916020019161034c565b820191906000526020600020905b81548152906001019060200180831161032f57829003601f168201915b50505050509050919050565b6001600160a01b0385163314806103745750610374853361019a565b6103db5760405162461bcd60e51b815260206004820152603260248201527f455243313135353a207472616e736665722063616c6c6572206973206e6f74206044820152711bdddb995c881b9bdc88185c1c1c9bdd995960721b6064820152608401610243565b6103e885858585856105b4565b5050505050565b606081518351146104545760405162461bcd60e51b815260206004820152602960248201527f455243313135353a206163636f756e747320616e6420696473206c656e677468604482015268040dad2e6dac2e8c6d60bb1b6064820152608401610243565b600083516001600160401b0381111561046f5761046f610cf6565b604051908082528060200260200182016040528015610498578160200160208202803683370190505b50905060005b8451811015610510576104e38582815181106104bc576104bc61110e565b60200260200101518583815181106104d6576104d661110e565b60200260200101516101db565b8282815181106104f5576104f561110e565b60209081029190910101526105098161113a565b905061049e565b509392505050565b610523338383610791565b5050565b6001600160a01b0385163314806105435750610543853361019a565b6105a15760405162461bcd60e51b815260206004820152602960248201527f455243313135353a2063616c6c6572206973206e6f74206f776e6572206e6f7260448201526808185c1c1c9bdd995960ba1b6064820152608401610243565b6103e88585858585610872565b3b151590565b81518351146106165760405162461bcd60e51b815260206004820152602860248201527f455243313135353a2069647320616e6420616d6f756e7473206c656e677468206044820152670dad2e6dac2e8c6d60c31b6064820152608401610243565b6001600160a01b03841661063c5760405162461bcd60e51b815260040161024390611155565b3360005b845181101561072357600085828151811061065d5761065d61110e565b60200260200101519050600085838151811061067b5761067b61110e565b602090810291909101810151600084815280835260408082206001600160a01b038e1683529093529190912054909150818110156106cb5760405162461bcd60e51b81526004016102439061119a565b6000838152602081815260408083206001600160a01b038e8116855292528083208585039055908b168252812080548492906107089084906111e4565b925050819055505050508061071c9061113a565b9050610640565b50846001600160a01b0316866001600160a01b0316826001600160a01b03167f4a39dc06d4c0dbc64b70af90fd698a233a518aa5d07e595d983b8c0526c8f7fb87876040516107739291906111fc565b60405180910390a4610789818787878787610998565b505050505050565b816001600160a01b0316836001600160a01b031614156108055760405162461bcd60e51b815260206004820152602960248201527f455243313135353a2073657474696e6720617070726f76616c20737461747573604482015268103337b91039b2b63360b91b6064820152608401610243565b6001600160a01b03838116600081815260016020908152604080832094871680845294825291829020805460ff191686151590811790915591519182527f17307eab39ab6107e8899845ad3d59bd9653f200f220920489ca2b5937696c31910160405180910390a3505050565b6001600160a01b0384166108985760405162461bcd60e51b815260040161024390611155565b336108b18187876108a888610af4565b6103e888610af4565b6000848152602081815260408083206001600160a01b038a168452909152902054838110156108f25760405162461bcd60e51b81526004016102439061119a565b6000858152602081815260408083206001600160a01b038b811685529252808320878503905590881682528120805486929061092f9084906111e4565b909155505060408051868152602081018690526001600160a01b03808916928a821692918616917fc3d58168c5ae7397731d063d5bbf3d657854427343f4c083240f7aacaa2d0f62910160405180910390a461098f828888888888610b3f565b50505050505050565b6001600160a01b0384163b156107895760405163bc197c8160e01b81526001600160a01b0385169063bc197c81906109dc908990899088908890889060040161122a565b6020604051808303816000875af1925050508015610a17575060408051601f3d908101601f19168201909252610a1491810190611288565b60015b610ac457610a236112a5565b806308c379a01415610a5d5750610a386112c1565b80610a435750610a5f565b8060405162461bcd60e51b81526004016102439190610ce3565b505b60405162461bcd60e51b815260206004820152603460248201527f455243313135353a207472616e7366657220746f206e6f6e20455243313135356044820152732932b1b2b4bb32b91034b6b83632b6b2b73a32b960611b6064820152608401610243565b6001600160e01b0319811663bc197c8160e01b1461098f5760405162461bcd60e51b81526004016102439061134a565b60408051600180825281830190925260609160009190602080830190803683370190505090508281600081518110610b2e57610b2e61110e565b602090810291909101015292915050565b6001600160a01b0384163b156107895760405163f23a6e6160e01b81526001600160a01b0385169063f23a6e6190610b839089908990889088908890600401611392565b6020604051808303816000875af1925050508015610bbe575060408051601f3d908101601f19168201909252610bbb91810190611288565b60015b610bca57610a236112a5565b6001600160e01b0319811663f23a6e6160e01b1461098f5760405162461bcd60e51b81526004016102439061134a565b80356001600160a01b0381168114610c1157600080fd5b919050565b60008060408385031215610c2957600080fd5b610c3283610bfa565b946020939093013593505050565b6001600160e01b031981168114610c5657600080fd5b50565b600060208284031215610c6b57600080fd5b8135610c7681610c40565b9392505050565b600060208284031215610c8f57600080fd5b5035919050565b6000815180845260005b81811015610cbc57602081850181015186830182015201610ca0565b81811115610cce576000602083870101525b50601f01601f19169290920160200192915050565b602081526000610c766020830184610c96565b634e487b7160e01b600052604160045260246000fd5b601f8201601f191681016001600160401b0381118282101715610d3157610d31610cf6565b6040525050565b60006001600160401b03821115610d5157610d51610cf6565b5060051b60200190565b600082601f830112610d6c57600080fd5b81356020610d7982610d38565b604051610d868282610d0c565b83815260059390931b8501820192828101915086841115610da657600080fd5b8286015b84811015610dc15780358352918301918301610daa565b509695505050505050565b600082601f830112610ddd57600080fd5b81356001600160401b03811115610df657610df6610cf6565b604051610e0d601f8301601f191660200182610d0c565b818152846020838601011115610e2257600080fd5b816020850160208301376000918101602001919091529392505050565b600080600080600060a08688031215610e5757600080fd5b610e6086610bfa565b9450610e6e60208701610bfa565b935060408601356001600160401b0380821115610e8a57600080fd5b610e9689838a01610d5b565b94506060880135915080821115610eac57600080fd5b610eb889838a01610d5b565b93506080880135915080821115610ece57600080fd5b50610edb88828901610dcc565b9150509295509295909350565b60008060408385031215610efb57600080fd5b82356001600160401b0380821115610f1257600080fd5b818501915085601f830112610f2657600080fd5b81356020610f3382610d38565b604051610f408282610d0c565b83815260059390931b8501820192828101915089841115610f6057600080fd5b948201945b83861015610f8557610f7686610bfa565b82529482019490820190610f65565b96505086013592505080821115610f9b57600080fd5b50610fa885828601610d5b565b9150509250929050565b600081518084526020808501945080840160005b83811015610fe257815187529582019590820190600101610fc6565b509495945050505050565b602081526000610c766020830184610fb2565b6000806040838503121561101357600080fd5b61101c83610bfa565b91506020830135801515811461103157600080fd5b809150509250929050565b6000806040838503121561104f57600080fd5b61105883610bfa565b915061106660208401610bfa565b90509250929050565b600080600080600060a0868803121561108757600080fd5b61109086610bfa565b945061109e60208701610bfa565b9350604086013592506060860135915060808601356001600160401b038111156110c757600080fd5b610edb88828901610dcc565b600181811c908216806110e757607f821691505b6020821081141561110857634e487b7160e01b600052602260045260246000fd5b50919050565b634e487b7160e01b600052603260045260246000fd5b634e487b7160e01b600052601160045260246000fd5b600060001982141561114e5761114e611124565b5060010190565b60208082526025908201527f455243313135353a207472616e7366657220746f20746865207a65726f206164604082015264647265737360d81b606082015260800190565b6020808252602a908201527f455243313135353a20696e73756666696369656e742062616c616e636520666f60408201526939103a3930b739b332b960b11b606082015260800190565b600082198211156111f7576111f7611124565b500190565b60408152600061120f6040830185610fb2565b82810360208401526112218185610fb2565b95945050505050565b6001600160a01b0386811682528516602082015260a06040820181905260009061125690830186610fb2565b82810360608401526112688186610fb2565b9050828103608084015261127c8185610c96565b98975050505050505050565b60006020828403121561129a57600080fd5b8151610c7681610c40565b600060033d11156112be5760046000803e5060005160e01c5b90565b600060443d10156112cf5790565b6040516003193d81016004833e81513d6001600160401b0381602484011181841117156112fe57505050505090565b82850191508151818111156113165750505050505090565b843d87010160208285010111156113305750505050505090565b61133f60208286010187610d0c565b509095945050505050565b60208082526028908201527f455243313135353a204552433131353552656365697665722072656a656374656040820152676420746f6b656e7360c01b606082015260800190565b6001600160a01b03868116825285166020820152604081018490526060810183905260a0608082018190526000906113cc90830184610c96565b97965050505050505056fea26469706673582212207d529a592cb86dd086e5775be65297c5105df95459155be12c77f8073b9e93b564736f6c634300080b003368747470733a2f2f67616d652e6578616d706c652f6170692f6974656d2f7b69647d2e6a736f6e",
  "immutableReferences": {},
  "source": "// contracts/GameItems.sol\n// SPDX-License-Identifier: MIT\npragma solidity ^0.8.0;\n\nimport \"@openzeppelin/contracts/token/ERC1155/ERC1155.sol\";\n\ncontract GameItems is ERC1155 {\n    uint256 public constant GOLD = 0;\n    uint256 public constant SILVER = 1;\n    uint256 public constant THORS_HAMMER = 2;\n    uint256 public constant SWORD = 3;\n    uint256 public constant SHIELD = 4;\n\n    constructor() ERC1155(\"https://game.example/api/item/{id}.json\") {\n        _mint(msg.sender, GOLD, 10**18, \"\");\n        _mint(msg.sender, SILVER, 10**27, \"\");\n        _mint(msg.sender, THORS_HAMMER, 1, \"\");\n        _mint(msg.sender, SWORD, 10**9, \"\");\n        _mint(msg.sender, SHIELD, 10**9, \"\");\n    }\n}",
  "sourcePath": "/Users/yasuoyuhao/Project/KTProject/ERC1155/contracts/ERC1155.sol",
  "compiler": {
    "name": "solc",
    "version": "0.8.11+commit.d7f03943.Emscripten.clang"
  },
  "schemaVersion": "3.4.4",
  "updatedAt": "2022-02-17T09:50:08.489Z",
  "devdoc": {
    "kind": "dev",
    "methods": {
      "balanceOf(address,uint256)": {
        "details": "See {IERC1155-balanceOf}. Requirements: - `account` cannot be the zero address."
      },
      "balanceOfBatch(address[],uint256[])": {
        "details": "See {IERC1155-balanceOfBatch}. Requirements: - `accounts` and `ids` must have the same length."
      },
      "isApprovedForAll(address,address)": {
        "details": "See {IERC1155-isApprovedForAll}."
      },
      "safeBatchTransferFrom(address,address,uint256[],uint256[],bytes)": {
        "details": "See {IERC1155-safeBatchTransferFrom}."
      },
      "safeTransferFrom(address,address,uint256,uint256,bytes)": {
        "details": "See {IERC1155-safeTransferFrom}."
      },
      "setApprovalForAll(address,bool)": {
        "details": "See {IERC1155-setApprovalForAll}."
      },
      "supportsInterface(bytes4)": {
        "details": "See {IERC165-supportsInterface}."
      },
      "uri(uint256)": {
        "details": "See {IERC1155MetadataURI-uri}. This implementation returns the same URI for *all* token types. It relies on the token type ID substitution mechanism https://eips.ethereum.org/EIPS/eip-1155#metadata[defined in the EIP]. Clients calling this function must replace the `\\{id\\}` substring with the actual token type ID."
      }
    },
    "version": 1
  },
  "userdoc": {
    "kind": "user",
    "methods": {},
    "version": 1
  }
}